:100000000C94A7000C94CF000C94CF000C94CF005C
:100010000C94CF000C94CF000C94CF000C94CF0024
:100020000C94CF000C94CF000C94CF000C94CF0014
:100030000C94CF000C94CF000C94CF000C94CF0004
:100040000C94F4120C94CF000C9464130C943E1393
:100050000C94CF000C94CF000C94CF000C94CF00E4
:100060000C94CF000C94CF0007634236B79BD8A7FF
:100070001A39685618AEBAAB558C1D3CB7CC5763CD
:10008000BD6DEDFD753EF6177231BF000000803F7B
:1000900008000000BE922449123EABAAAA2ABECD97
:1000A000CCCC4C3E00000080BEABAAAAAA3E000009
:1000B0000000BF000000803F000000000008417801
:1000C000D3BB4387D1133D190E3CC3BD4282AD2B38
:1000D0003E68EC8276BED98FE1A93E4C80EFFFBE30
:1000E00001C4FF7F3F00000000007C3C3E5E2B3DD2
:1000F0003F2F5B5D3B2C2A225C00000000080002C1
:1001000001000003040700000000000000000000E0
:100110000000250028002B0000000000240027001C
:100120002A00040404040404040402020202020279
:1001300003030303030301020408102040800102AB
:10014000040810200102040810209613FD16112443
:100150001FBECFEFD8E0DEBFCDBF24E0AEEAB1E0F6
:1001600001C01D92AE3CB207E1F711E0A0E0B1E0A2
:10017000ECE1FBE302C005900D92AE3AB107D9F76E
:1001800010E0C6EAD0E004C02197FE010E94621B85
:10019000C53AD107C9F70E9460140C94811D0C94D4
:1001A000000090E0FC01EA5CFE4F24918E5D9E4FC2
:1001B000FC018491882399F090E0880F991FFC013D
:1001C000E85EFE4FA591B491FC01E25FFE4F859180
:1001D00094918FB7F894EC91E22BEC938FBF089534
:1001E00090E0FC01E650FF4F2491FC01EA5CFE4FD9
:1001F0003491FC01EE5DFE4FE491EE23C9F0222321
:1002000039F0233001F1A8F4213019F1223029F11D
:10021000F0E0EE0FFF1FE25FFE4FA591B4918FB7A4
:10022000F894EC91611126C030953E233C938FBF2A
:1002300008952730A9F02830C9F0243049F780917B
:1002400080008F7D03C0809180008F778093800035
:10025000DFCF84B58F7784BDDBCF84B58F7DFBCFB7
:100260008091B0008F778093B000D2CF8091B000A2
:100270008F7DF9CF3E2BDACF3FB7F8948091BB0149
:100280009091BC01A091BD01B091BE0126B5A89B83
:1002900005C02F3F19F00196A11DB11D3FBFBA2F18
:1002A000A92F982F8827BC01CD01620F711D811DD8
:1002B000911D42E0660F771F881F991F4A95D1F75D
:1002C00008958F929F92AF92BF92CF92DF92EF925A
:1002D000FF924B015C010E943C016B017C010E947A
:1002E0003C016C197D098E099F09683E73408105A8
:1002F0009105A8F321E0821A9108A108B10888EEBF
:10030000C80E83E0D81EE11CF11C81149104A104E5
:10031000B10429F7FF90EF90DF90CF90BF90AF909E
:100320009F908F9008952FB7F8946091B7017091C6
:10033000B8018091B9019091BA012FBF0895AF9291
:10034000BF92CF92DF92EF92FF920F931F93CF93C2
:10035000DF936C017B018B01040F151FEB015E0124
:10036000AE18BF08C017D10759F06991D601ED91B9
:10037000FC910190F081E02DC6010995892B79F758
:10038000C501DF91CF911F910F91FF90EF90DF900A
:10039000CF90BF90AF900895FC01538D448D252FD1
:1003A00030E0842F90E0821B930B541710F0CF960F
:1003B000089501970895FC01918D828D981761F041
:1003C000A28DAE0FBF2FB11D5D968C91928D9F5F58
:1003D0009F73928F90E008958FEF9FEF0895FC0137
:1003E000918D828D981731F0828DE80FF11D858DEA
:1003F00090E008958FEF9FEF0895FC01918D228D7D
:10040000892F90E0805C9F4F821B91098F73992701
:10041000089581EC93E00E94FD0121E0892B09F40D
:1004200020E0822F089580E090E0892B29F00E943F
:10043000090281110C9400000895FC01A48DA80FFD
:10044000B92FB11DA35ABF4F2C91848D90E0019616
:100450008F739927848FA689B7892C93A089B18936
:100460008C91837080648C93938D848D981306C0D7
:100470000288F389E02D80818F7D80830895EF923B
:10048000FF920F931F93CF93DF93EC0181E0888F4E
:100490009B8D8C8D98131AC0E889F989808185FF1E
:1004A00015C09FB7F894EE89FF896083E889F989C0
:1004B00080818370806480839FBF81E090E0DF91C2
:1004C000CF911F910F91FF90EF900895F62E0B8D15
:1004D00010E00F5F1F4F0F731127E02E8C8D8E11D0
:1004E0000CC00FB607FCFACFE889F989808185FF37
:1004F000F5CFCE010E941D02F1CFEB8DEC0FFD2F49
:10050000F11DE35AFF4FF0829FB7F8940B8FEA89F1
:10051000FB8980818062CFCFCF93DF93EC01888D00
:100520008823B9F0AA89BB89E889F9898C9185FD6E
:1005300003C0808186FD0DC00FB607FCF7CF8C91FC
:1005400085FFF2CF808185FFEDCFCE010E941D0295
:10055000E9CFDF91CF9108958FB7F8948091AF01E3
:100560008FBF089561E0FC0184810E94F0008091BA
:10057000AE0181111092AE0108958EBD00000DB440
:1005800007FEFDCF8EB508958FEF0C94BD020F933B
:100590001F93CF93DF93EC010E9493018B010E9484
:1005A000C4028F3F69F00E949301601B710B6C17AE
:1005B0007D07A8F380E0DF91CF911F910F910895FF
:1005C00081E0F9CF8CBD9DBD0895CF93DF93EC0101
:1005D0008091AE01811109C081E08093AE018091CC
:1005E0005E0490915F040E94E20260E08C81DF91E2
:1005F000CF910C94F0008F929F92AF92BF92FF9296
:100600000F931F93CF93DF93EC01F62E49015A010C
:100610008E81882389F08F8198859C012F5F3F4FC1
:1006200038872F838230924018F40E94C402F3CF9F
:10063000CE010E94B2021E82CE010E94E5028CE22F
:1006400091E00E94C7028F2D80640E94BD0208E1E4
:1006500010E0D501C401002E04C0B695A79597956A
:1006600087950A94D2F70E94BD0208501109083FED
:100670008FEF180771F785E9FF2021F028E087E860
:10068000F2128FEF0E94BD0210E00E94C4028A871E
:1006900087FF04C01F3F11F01F5FF7CFDF91CF919D
:1006A0001F910F91FF90BF90AF909F908F900895F2
:1006B000AF92BF92CF92DF92EF92FF920F931F9370
:1006C000CF93DF93EC016901C801820F931F813042
:1006D000924050F58E81882379F088819981AA8192
:1006E000BB8184179507A607B70731F48F819885DA
:1006F000C816D90608F042C0488359836A837B83B1
:100700008B85833039F089E0440F551F661F771FB2
:100710008A95D1F79A01AB0161E1CE010E94FB02FB
:10072000882389F083E08D83CE010E94B20280E0AD
:10073000DF91CF911F910F91FF90EF90DF90CF90BD
:10074000BF90AF9008950E9493015B010E94C40284
:100750008A878F3F69F40E9493016A197B096D3281
:100760007140A0F38FE08D83CE010E94B202DCCFF6
:100770008E3F89F418861F8281E08E838F81988551
:100780008C159D0550F40E94C4028F8198850196B6
:1007900098878F83F3CF8DE0E6CF6701E00EF11EDF
:1007A0000E94C402F60181936F01EE15FF05C1F7A7
:1007B0008F819885080F191F18870F8389858823D3
:1007C00019F001151240A0F08E81882389F08F81E5
:1007D00098859C012F5F3F4F38872F83823092404E
:1007E00018F40E94C402F3CFCE010E94B2021E820E
:1007F00081E09ECFCF92DF92EF92FF920F93CF9343
:10080000DF93EC01690182E1411551056105710534
:1008100099F08B85833039F089E0440F551F661FAE
:10082000771F8A95D1F79A01AB0168E1CE010E944A
:10083000FB02882319F084E08D832DC08EEF0E9487
:10084000BD0276018EEFD81AF70181917F010E94D7
:10085000BD02EC14FD04C1F78FEF0E94BD028FEFC3
:100860000E94BD020E94C4028A878F71853071F494
:10087000011116C0CE010E94B20281E0DF91CF913A
:100880000F91FF90EF90DF90CF90089581E18D83DD
:10089000CE010E94B202CE010E94B20280E0EECFF1
:1008A00088E592E00E94C702811102C085E1C4CFB1
:1008B00020E030E0A9016DE0CE010E94FB02882318
:1008C00011F084E1B9CF0E94C4028111FACFD2CFD6
:1008D0000F934091B1015091B2016091B3017091B9
:1008E000B401411551056105710599F0082F2FEBF1
:1008F00031E08091BF039091C0030E94FA038823E6
:1009000049F01092B1011092B2011092B30110920D
:10091000B40181E00F9108950F93CF93C82F809178
:10092000B001811105C0C1E08C2FCF910F910895C6
:100930004091000150910101609102017091030109
:100940000C2F2FEB31E08091BF039091C0030E94E8
:10095000FA03811102C0C0E0E7CFCC2321F381E08C
:100960000E9468048823B9F31092B001DDCF8F9202
:100970009F92AF92BF92EF92FF920F931F93CF93EC
:100980004B015C01C42F8091000190910101A09165
:100990000201B091030188159905AA05BB0551F123
:1009A00081E00E948C0481110BC080E0CF911F91E7
:1009B0000F91FF90EF90BF90AF909F908F90089510
:1009C0008FEBE82E81E0F82E00E012E030E020E02E
:1009D000B501A4018091BF039091C0030E94580308
:1009E000882319F38092000190920101A0920201E4
:1009F000B09203014091B0014C2B4093B00181E0D3
:100A0000D5CF8F929F92AF92BF92CF92DF92EF920B
:100A1000FF92CF9320E634E03093C0032093BF03CE
:100A2000882309F46DC040E060E070E0CB010E94D3
:100A3000B70481110BC080E0CF91FF90EF90DF9061
:100A4000CF90BF90AF909F908F90089580917D033D
:100A50008F7789F78091890390918A03A0918B0306
:100A6000B0918C0384369105A105B10520F3C090A7
:100A70008503D0908603E0908703F0908803C1142B
:100A8000D104E104F104B9F240E0C701B6010E94CB
:100A9000B704882381F28091CA019091CB0181151E
:100AA000924049F6A091CF01AA2329F26091CD018D
:100AB0007091CE016115710509F4BDCF2091CC0173
:100AC000222309F4B8CFA0937E042093700490E011
:100AD00080E030E0E1E0F0E0C82FAF01082E02C076
:100AE000440F551F0A94E2F72417350769F041E0D7
:100AF000480F01968930910579F7409379049BCF8F
:100B0000C12CD12C7601C0CF809379042091D501DE
:100B10003091D60150E040E02115310541F420919B
:100B2000E3013091E4014091E5015091E601209309
:100B3000710430937204409373045093740446011B
:100B40005701860E971EA11CB11C80927F049092C3
:100B50008004A0928104B0928204E091D001F091CF
:100B6000D101F0938504E0938404B0E00E942A1838
:100B7000DC01CB01880D991DAA1DBB1D8093860445
:100B800090938704A0938804B093890425E0EE0F26
:100B9000FF1F2A95E1F7E150FE4FEF2FFF27E69563
:100BA0008E0F9F1FA11DB11D80937A0490937B042B
:100BB000A0937C04B0937D048090D2019090D301E7
:100BC000B12CA12C8114910441F48090DF0190900C
:100BD000E001A090E101B090E201C81AD90AEA0A46
:100BE000FB0AC80CD91CEA1CFB1C04C0F694E79451
:100BF000D794C794CA95D2F7C0927504D092760460
:100C0000E0927704F092780485EFC8168FE0D8065A
:100C1000E104F10428F48CE08093830481E00CCF9C
:100C200080E125EFC2162FEFD206E104F104A0F314
:100C30008091EB019091EC01A091ED01B091EE015A
:100C40008093860490938704A0938804B0938904CA
:100C500080E2E2CF4F925F926F927F928F929F924B
:100C6000AF92BF92CF92DF92EF92FF920F931F93BA
:100C7000CF93DF93EC01423051056105710590F48B
:100C800080E0DF91CF911F910F91FF90EF90DF9067
:100C9000CF90BF90AF909F908F907F906F905F901C
:100CA0004F90089589859A85AB85BC850196A11DD5
:100CB000B11D84179507A607B70710F3CB88DC880A
:100CC000ED88FE888F89803109F042C0BB27A72FAD
:100CD000962F852F480159012A013B01C80ED91EC4
:100CE000EA1EFB1E8091000190910101A09102017A
:100CF000B0910301C816D906EA06FB0699F58F895B
:100D00008031C1F5B301A201552766277727440F2B
:100D1000551F41545E4FFA01918280828091B0014B
:100D200081608093B0018A89823080F08D819E81BC
:100D3000AF81B8858C0D9D1DAE1DBF1D8093B10187
:100D40009093B201A093B301B093B40181E099CF25
:100D5000DB01CA01E7E0B695A79597958795EA95D7
:100D6000D1F7B8CF40E0C701B6010E94B7048111A6
:100D7000C6CF86CFB301A2014F77552766277727C5
:100D8000440F551F440F551F41545E4FFA01808296
:100D90009182A282B382C2CF8F929F92AF92BF9272
:100DA000CF92DF92EF92FF920F931F93CF93DF9337
:100DB000FC0181859285A385B4850196A11DB11D95
:100DC00084179507A607B70770F480E0DF91CF91ED
:100DD0001F910F91FF90EF90DF90CF90BF90AF9059
:100DE0009F908F90089583889488A588B688878976
:100DF000803189F5BB27A72F962F852FE9016A013E
:100E00007B018F01BC01CD01680D791D8A1D9B1DE1
:100E10008090000190900101A0900201B090030128
:100E200086169706A806B90601F5F801878980316C
:100E300011F5DD24EE24FF24F601EE0FFF1FE1542F
:100E4000FE4F80819181B0E0A0E088839983AA83DE
:100E5000BB8381E0BBCFDB01CA01C7E0B695A79594
:100E600097958795CA95D1F7C9CF40E00E94B704FE
:100E70008111DBCFAACFE894C7F8DD24EE24FF244C
:100E8000F601EE0FFF1FEE0FFF1FE154FE4F8081B2
:100E90009181A281B381BF70D8CF4F925F926F9240
:100EA0007F92AF92BF92CF92DF92EF92FF920F9319
:100EB0001F93CF93DF9300D000D0CDB7DEB78C0166
:100EC00049835A836B837C835901C12CD12C7601D1
:100ED000412C82E0582E612C712C49815A816B8102
:100EE0007C819E012F5F3F4FC8010E94CC06882362
:100EF00039F1F8018585A301920104C0220F331F47
:100F0000441F551F8A95D2F7DA01C901C80ED91EB0
:100F1000EA1EFB1E49815A816B817C818789803161
:100F200011F188EF9FEFAFEFBFE0481759076A074D
:100F30007B0798F2F501C082D182E282F38281E0E0
:100F40000F900F900F900F90DF91CF911F910F9105
:100F5000FF90EF90DF90CF90BF90AF907F906F9019
:100F60005F904F90089588EF9FEFA0E0B0E0DDCF55
:100F7000CF93DF93FC012581222321F080E0DF91D4
:100F8000CF910895EC0180918304803159F582E07E
:100F90008583178A108E118E128E80918404909111
:100FA0008504B0E0A0E025E0880F991FAA1FBB1FB1
:100FB0002A95D1F7838B948BA58BB68B8CE694E026
:100FC0009C8F8B8F81E08C831E821F8218861986EE
:100FD0001A861B861C861D861E861F86188A198AFD
:100FE0001A8ACDCF803251F683E085834091860402
:100FF000509187046091880470918904478B508FC9
:10100000618F728F9F012D5E3F4F8CE694E00E94AE
:101010004D078111D3CFB2CF8F929F92AF92BF92E3
:10102000CF92DF92EF92FF920F931F93CF93DF93B4
:10103000EC018D8181110EC080E0DF91CF911F9175
:101040000F91FF90EF90DF90CF90BF90AF909F9067
:101050008F9008950B891C892D893E8904171507E7
:101060002607370748F34A015B01823031F48A864C
:101070009B86AC86BD8681E0E0CF81149104A104FB
:10108000B10449F41E821F82188619861A861B86AF
:101090001C861D86F0CF0A851B852C853D85EB8D32
:1010A000FC8D858590E00996B901A8014150510950
:1010B00061097109082E04C0769567955795479583
:1010C0000A94D2F775016401E1E0CE1AD108E10873
:1010D000F10804C0F694E794D794C7948A95D2F7A0
:1010E000C416D506E606F70620F0012B022B032BCB
:1010F00011F58F89988DA98DBA8D8E839F83A887CE
:10110000B9878E010A5F1F4FC114D104E104F104B5
:1011100009F4ADCF4E815F816885798598018B8D0B
:101120009C8D0E94CC0691E0C91AD108E108F10813
:101130008111EACF81CFC41AD50AE60AF70AE1CFB6
:101140003F924F925F926F927F928F929F92AF9257
:10115000BF92CF92DF92EF92FF920F931F93CF93A4
:10116000DF93CDB7DEB72C970FB6F894DEBF0FBE76
:10117000CDBF5C01DC015B968D909C905C971696D0
:101180004D905D906D907C901997411451046104CD
:10119000710409F468C0BFEF4B1A5B0A6B0A7B0A43
:1011A000312CF40181859285A385B4859C01AD0124
:1011B0002F5F3F4F4F4F5F4F29873A874B875C87A1
:1011C000730162011D821E821F821886F4018185CF
:1011D0009285A385B4852D813E814F81588528173E
:1011E00039074A075B0708F056C089859A85AB85A1
:1011F000BC858C159D05AE05BF0550F482E0C82E58
:10120000D12CE12CF12C92E0492E512C612C712C27
:101210009E012F5F3F4FB701A601C4010E94CC067B
:101220008823C9F189819A81AB81BC81892B8A2B62
:101230008B2B09F1260137019FEF491A590A690AD8
:10124000790A2D813E814F8158852F5F3F4F4F4F47
:101250005F4F2D833E834F8358873FEFC31AD30AD6
:10126000E30AF30AB3CFF4014080518062807380B7
:101270003324339496CFC414D504E604F70409F755
:101280000FEF1FEF2FEF3FE0B701A601C4010E944F
:101290002A06811119C080E02C960FB6F894DEBFA3
:1012A0000FBECDBFDF91CF911F910F91FF90EF90B7
:1012B000DF90CF90BF90AF909F908F907F906F9076
:1012C0005F904F903F900895D50116964D915D9196
:1012D0006D917C911997411551056105710539F0A2
:1012E00097018601C4010E942A068823A1F2D50134
:1012F0001696CD92DD92ED92FC921997332051F023
:10130000D701C6010196A11DB11DF401808391830F
:10131000A283B383F5018789908DA18DB28D892B2E
:101320008A2B8B2B39F48481C78AD08EE18EF28E82
:1013300080688483F50184818062848381E0ACCFFE
:101340001F93CF93DF93FC0125812223D1F1162F28
:10135000EC01848187FF2AC0668577858089918921
:1013600041E00E94B704882361F1EA8980E2E89FA6
:10137000F0011124E154FE4F309719F18D81823034
:1013800040F48B899C89AD89BE89848F958FA68F07
:10139000B78F8F89988D938F828F8F89988DA98D24
:1013A000BA8DB58BA48B8C818F778C83111103C080
:1013B0008C818F7E8C83812FDF91CF911F910C9434
:1013C0008C0480E0DF91CF911F910895FF920F93DD
:1013D0001F93CF93DF93EC018D81813041F090E03A
:1013E00080E0DF91CF911F910F91FF9008958C8144
:1013F00081FFF5CF82FD1BC00091BF031091C00398
:10140000C8010E94E5020E94C402F82EC8010E9491
:10141000B2028FEFF812E3CF8C8185FF1BC060E032
:10142000CE010E94A0098C818F7D8C83D8CF4B89FF
:101430005C896D897E898A859B85AC85BD8584178D
:101440009507A607B707C1F2CE010E940C088111CB
:10145000D3CFC5CF4091B1015091B2016091B3019A
:101460007091B401452B462B472B21F080E00E9460
:101470006804B5CF80618C832A853B85317080E01C
:1014800092E0821B930BADCFCF93DF93EC0161E031
:101490000E94A009882311F01D8281E0DF91CF9185
:1014A00008952F923F924F925F926F927F928F9208
:1014B0009F92AF92BF92CF92DF92EF92FF920F93E3
:1014C0001F93CF93DF9300D000D01F92CDB7DEB72C
:1014D0007C015B01342E5D83DC0115968C911597A0
:1014E000813009F0CEC014962C9021FECAC022FC97
:1014F000B4C0C32CDD8022947FE027222094B22D3B
:10150000B1702B2ED7011A964D915D916D917C9102
:101510001D97C114D10409F428C15B968D919C914B
:101520005C97FC0174807A948A019B0169E036958E
:101530002795179507956A95D1F770228A01117042
:10154000711020C001151105E9F416964D915D91B9
:101550006D917C911997411551056105710509F04F
:1015600099C057968D919D910D90BC91A02D00979B
:10157000A105B10509F0B0C0C7010E94A0088823E9
:1015800009F47FC080E092E0801B910B46018C152E
:101590009D0508F44C01D7015B964D915C915C97D9
:1015A00016968D919D910D90BC91A02D0297A10949
:1015B000B109FA01258504C0880F991FAA1FBB1F16
:1015C0002A95D2F74685578560897189840F951FC2
:1015D000A61FB71F9C01AD01270D311D411D511DD7
:1015E00029013A01811432E0930609F07BC0809111
:1015F000000190910101A0910201B09103018415B5
:101600009505A605B70559F48FEF9FEFDC01809390
:10161000000190930101A0930201B0930301022DF8
:101620009501B301A2018091BF039091C0030E9474
:10163000FA03882331F19EEFB91AC818D908F701C7
:1016400082859385A485B585880D991DA11DB11D41
:1016500082879387A487B58755CFF701438954893B
:101660006589768982859385A485B585481759074C
:101670006A077B0709F43DCFC7010E940C0881115E
:1016800038CF81E090E0D70113969C938E93129708
:1016900080E007C09E012F5F3F4F0E94CC06811162
:1016A00002C090E079C089819A81AB81BC81F70149
:1016B000238D348DF901278948EF5FEF60E070E0FA
:1016C000203121F048EF5FEF6FEF7FE0841795073F
:1016D000A607B70708F050CFF70186839783A08746
:1016E000B18750CF0115110599F5D7011A964D9183
:1016F0005D916D917C911D9753968D919D910D906B
:10170000BC91A02D481759076A077B0708F181E0B3
:101710000E948C04882309F4B4CF409200015092B7
:10172000010160920201709203018091B001816019
:101730008093B001C80181549E4FD5019C01280DB2
:10174000391DFC012E173F0759F04D914193FACFF7
:1017500041E0C301B2010E94B7048111EBCF91CFE8
:10176000281B390BA20EB31E68CFF7018389948919
:10177000A589B68984179507A607B70738F4848129
:10178000438B548B658B768B80688483F7018481CF
:1017900083FD1AC0832D9D810F900F900F900F90A5
:1017A0000F90DF91CF911F910F91FF90EF90DF90FD
:1017B000CF90BF90AF909F908F907F906F905F90F1
:1017C0004F903F902F90089561E0C7010E94A009BB
:1017D000882309F456CFDECFCF93DF931F92CDB786
:1017E000DEB7698341E050E0BE016F5F7F4F0E942A
:1017F000510A0F90DF91CF910895FC01DB01129601
:101800008D919C9113979383828380E291E09183E1
:10181000808314968C911497848315968C911597D8
:10182000858316964D915D916D917C9119974683B4
:101830005783608771871A964D915D916D917C9168
:101840001D9742875387648775871E964D915D91DA
:101850006D917C91519746875787608B718B52961B
:101860008C915297828B53964D915D916D917C91A5
:101870005697438B548B658B768B57964D915D9124
:101880006D917C915A97478B508F618F728F5B96C9
:101890008D919C91948F838F08950895FC01818D83
:1018A000928D009719F061E00C94A0090895DC0175
:1018B0005996ED91FC913097B9F083899489A58967
:1018C000B6894285538564857585841B950BA60B67
:1018D000B70B811520E89207A105B10538F08FEF0D
:1018E0009FE7A0E0B0E0089590E080E00895DC017B
:1018F00059968D919C91009739F0DC01ED91FC9106
:101900000480F581E02D099490E080E00895CF9364
:10191000DF93EC01E98DFA8D309749F481E090E096
:101920009B838A8390E080E0DF91CF9108951382BA
:101930001282898D9A8D0E94510AE98DFA8D228139
:101940003381232B59F7F0CFCF93DF931F92CDB77D
:10195000DEB76983DC01ED91FC910280F381E02D1B
:1019600041E050E0BE016F5F7F4F09950F90DF911E
:10197000CF9108952F923F924F925F926F927F92F4
:101980008F929F92AF92BF92CF92DF92EF92FF928F
:101990000F931F93CF93DF9300D01F92CDB7DEB785
:1019A000FC018581811118C08FEF9FEF0F900F9080
:1019B0000F90DF91CF911F910F91FF90EF90DF90EB
:1019C000CF90BF90AF909F908F907F906F905F90DF
:1019D0004F903F902F900895848180FFE5CF4389F9
:1019E00054896589768982859385A485B585312C4E
:1019F000212C481759076A077B0719F022242394E2
:101A0000312C6F012101CE0101963C01DF011696B8
:101A1000BB83AA834114510409F4C5C0F601428571
:101A20005385648575854A01F1E09F22D6015B9656
:101A30008D919C915C978A019B01E9E036952795F1
:101A400017950795EA95D1F71596EC91E230E9F5EF
:101A5000FC01628D738D848D958D600F711F821FC7
:101A6000931FA12C22E0B22EA818B9084A145B04D7
:101A700008F45201F601248126FD04C0A114F2E00D
:101A8000BF0671F400910001109101012091020143
:101A900030910301061717072807390709F05EC0C0
:101AA00040E00E94B704882309F47ECFC40181542A
:101AB0009E4FD3019C012A0D3B1DFC012E173F07B1
:101AC00009F46CC041914D93F9CFDC011496BC90A0
:101AD000BA94B0228114910479F4B1100DC0452B51
:101AE000462B472B69F5F6018789908DA18DB28D24
:101AF00086839783A087B187D6015B96ED91FC9191
:101B00005C9716966D917D918D919C91199762507D
:101B1000710981099109258504C0660F771F881F07
:101B2000991F2A95D2F70685178520893189600F7C
:101B3000711F821F931F6B0D711D811D911D91CF10
:101B4000D60116964D915D916D917C9119972A81E0
:101B50003B810E94CC068111CFCF26CF7301850136
:101B60009401AB01BC018091BF039091C0030E941E
:101B70005803882309F418CF6A0C7B1CF601828570
:101B80009385A485B5858A0D9B1DA11DB11D8287F6
:101B90009387A487B5874A185B083CCF281B390B6D
:101BA000620E731EEBCF2A94232809F0FDCE8981A3
:101BB00090E0FCCEFC01818D928D009711F00C9489
:101BC000BA0C8FEF9FEF08950F931F93CF93DF937E
:101BD000EC01898D9A8D10E000E0009799F00E9449
:101BE000BA0C8C010F3F100769F0898D9A8DFC01AA
:101BF0004285538564857585415051096109710994
:101C00000E940C08C801DF91CF911F910F91089598
:101C1000EF92FF921F93CF93DF93182F7B01D0E0B9
:101C2000C0E060E0812F0E94F00061E070E080E0A1
:101C300090E00E94610161E0812F0E94F00061E06C
:101C400070E080E090E00E9461012196EC16FD06B4
:101C500041F7DF91CF911F91FF90EF900895CF92C0
:101C6000DF92EF92FF921F93CF93DF93EC0180E21C
:101C7000689FF0011124E154FE4F9385917161F04A
:101C8000842F827449F080E0DF91CF911F91FF9003
:101C9000EF90DF90CF900895142F6A8B8091000110
:101CA00090910101A0910201B09103018E879F875D
:101CB000A88BB98BC488D588F12CE12C7601DD2462
:101CC000CC24CF8AD88EE98EFA8E828D938DB0E0A7
:101CD000A0E0AC01BD014C295D296E297F294F8B05
:101CE000588F698F7A8F83858871B1F4848D958D33
:101CF000A68DB78D8B8B9C8BAD8BBE8B81E08D833E
:101D00001F701C831E821F82188619861A861B86E6
:101D10001C861D8681E0B8CF803109F0B4CF9E01CA
:101D20002D5E3F4F8B8D9C8D0E944D07882309F4BB
:101D3000AACF84E0E4CFFB0101900020E9F73197BE
:101D4000AF01461B570BDC01ED91FC910280F38142
:101D5000E02D09948F929F92AF92BF920F931F93A1
:101D6000CF93DF93CDB7DEB7A1970FB6F894DEBF60
:101D70000FBECDBF19A2423008F44AE08E010F5DBC
:101D80001F4F842E912CB12CA12CA50194010E94EF
:101D90002C1BE62FB901CA01EA3004F5E05DD80139
:101DA000EE938D01232B242B252B79F790E080E0F7
:101DB000109729F0BD018FEA94E00E949B0EA19636
:101DC0000FB6F894DEBF0FBECDBFDF91CF911F914C
:101DD0000F91BF90AF909F908F900895E95CDFCFF7
:101DE0003F924F925F926F927F928F929F92AF92AB
:101DF000BF92CF92DF92EF92FF920F931F93CF93F8
:101E0000DF93CDB7DEB72B970FB6F894DEBF0FBECA
:101E1000CDBF7C01FE013196CE010C966F0130E200
:101E20003193E817F907E1F7DA0130E087E09D9197
:101E3000B92E992309F43CC09E32F1F48A30C9F4DA
:101E400080E02B960FB6F894DEBF0FBECDBFDF91BA
:101E5000CF911F910F91FF90EF90DF90CF90BF90A7
:101E6000AF909F908F907F906F905F904F903F903A
:101E7000089538E08AE0DBCFEAEEF0E044914423B5
:101E800021F031969413FACFDBCF8317C8F24FEDD0
:101E9000490F4E35A8F64FE9490F4A3118F440EE84
:101EA000B42EB90EF601E30FF11DB0823F5FBFCF34
:101EB0008981803229F2322E8B01DB015B968D9174
:101EC0009C915C97F701948F838F16961D921D92BB
:101ED0001D921C921997FB01128613861486158693
:101EE000F80182859385A485B585438954896589E0
:101EF000768984179507A607B70708F04DC025E037
:101F0000B695A795979587952A95D1F7F82FFF70E5
:101F1000AF2ED80115968C91823008F491CFC8016C
:101F20000E94BA0C97FD8CCFF80182859385A48519
:101F3000B5854F96A11DB11D82879387A487B5876C
:101F4000F0E2AF9EB001112461547E4F611571051E
:101F500009F476CFDB018C91882341F0853E09F0AE
:101F600062C0BB2029F0BB24B394BACFB1100EC01D
:101F7000F701A28A8091000190910101A0910201D4
:101F8000B091030186879787A08BB18BDB018C9181
:101F90008111E9CFBB24B394832D8271823109F082
:101FA0004FCFBB2009F44DC0F70166857785808946
:101FB000918941E00E94B704882309F441CFD701F9
:101FC00052968C91B0E28B9FC001112481549E4F98
:101FD000009709F435CFFC013A9626E1DF011D9206
:101FE0002A95E9F72BE0F601DC0101900D922A9584
:101FF000E1F721E238E2FC01318B208B40E058E030
:1020000057874687338B228B318F208F578B468B98
:1020100081E00E948C04882309F412CF432DD7015C
:1020200052966C910AC04BE050E0C6010E944A1DD6
:10203000892B09F055CF432D6A2DC7010E942F0E21
:1020400000CFF8018581823009F4FACEC8010E94E0
:10205000A008882309F4F4CED8015B96ED91FC9199
:102060005C9716968D909D90AD90BC901997B2E0BC
:102070008B1A9108A108B108858504C0880C991CA9
:10208000AA1CBB1C8A95D2F786859785A089B18941
:10209000880E991EAA1EBB1E848124013501480E9C
:1020A000511C611C711C84149504A604B70409F129
:1020B000E1E04E1A51086108710881E00E948C0429
:1020C000882309F4BDCEEFEBF1E011928FEB93E0A2
:1020D0008E179F07D1F74092000150920101609244
:1020E0000201709203018091B00181608093B00180
:1020F000DACFD8015B96ED91FC91258580E092E0E6
:10210000A0E0B0E004C0880F991FAA1FBB1F2A954A
:10211000D2F7F8014389548965897689840F951F20
:10212000A61FB71F838B948BA58BB68BD7015296B6
:102130001C928FEB91E04FCFEF92FF920F931F9382
:10214000CF93DF93EC017B018A011B821A8288EE18
:1021500093E0A0E0B0E08C839D83AE83BF838CE2EC
:1021600091E0998388838DE190E00E94681B9A8FAB
:10217000898F009779F02DE1F701DC0101900D9234
:102180002A95E1F74CE050E0B801CE010C960E9490
:10219000721D188EDF91CF911F910F91FF90EF90DC
:1021A00008952F923F924F925F926F927F928F92FB
:1021B0009F92AF92BF92CF92DF92EF92FF920F93D6
:1021C0001F93CF93DF93CDB7DEB7C457D1090FB6B6
:1021D000F894DEBF0FBECDBF4B015C018091A90416
:1021E0009091AA04E5969FAF8EAFE59719A218A229
:1021F00080E291E09F8F8E8F1BA21C821B829A83AC
:1022000089831E826E019EE1C90ED11CC6010E9407
:10221000B807E5960EAD1FADE597FE0131967F013B
:1022200026013F016FE270E0C8010E94601D009727
:1022300009F460C0F80120812F3269F40F5F1F4F4D
:102240009E2D8F2D7201492E582E942D852D2701FC
:10225000E92EF82EE7CF801B8D3008F08CE0282E79
:10226000312CA101B801CE01885A9F4F0E94721DE6
:10227000E8E5F0E0EC0FFD1FE20DF31D1082C70151
:102280000E94440AF7018581882321F11EAE1DAE0C
:1022900080E291E09CAF8BAF21961FAE219710E0BA
:1022A00000E0E596EEADFFADE5970E0F1F1FF801BC
:1022B000808181112BC0BE01655C7F4FC3010E94EC
:1022C000FD0B4AE351E0B301CE01885A9F4F0E94B3
:1022D0009C1043C021E0AE01485A5F4FB201C701D4
:1022E0000E94F00E882391F2020D131DC2010E947C
:1022F000440AABCFE5968EAD9FADE597081B190B51
:10230000B201CE01CB960E94FD0BCBCF19A218A231
:1023100080E291E09F8F8E8F1BA221968FAD219737
:102320008111B6C06C961FAE1EAE6C9788EE93E01E
:10233000A0E0B0E0A0968CAF9DAFAEAFBFAFA097CE
:102340008CE291E06A969FAF8EAF6A97E3961FAEDC
:102350001EAEE397A5961FAEA5976C968EAD9FAD6A
:102360006C979093B2048093B104A0968CAD9DAD10
:10237000AEADBFADA0978093B3049093B404A09387
:10238000B504B093B604A4968CAD9DADAEADBFAD13
:10239000A4978093B7049093B804A093B904B09322
:1023A000BA04A8E5B0E0AC0FBD1F1C96EBEBF4E05F
:1023B0008D91819384E0E83CF807D1F7E396EEAD88
:1023C000FFADE397F093C904E093C804309709F494
:1023D000F2C08581882309F4EEC0A5019401C501EE
:1023E000B4010E94DE196CE371E081111BC075011C
:1023F0006401E894F7F82FEF3FEF4FE75FE7C7017D
:10240000B6010E94DE1981115FC02FEF3FEF4FE749
:102410005FE7C701B6010E94061718160CF054C0FA
:1024200060E471E08FEA94E00E949B0E68E471E042
:102430008FEA94E00E949B0E8091C8049091C90499
:10244000009761F00E94440A8091C8049091C904E9
:102450000E94041C1092C9041092C804CC58DF4F8B
:102460000FB6F894DEBF0FBECDBFDF91CF911F91A5
:102470000F91FF90EF90DF90CF90BF90AF909F9023
:102480008F907F906F905F904F903F902F90089526
:1024900027E1A801BE01655C7F4FC6010E94F00ED6
:1024A000882309F43FCFCE01CB960E94440A49A964
:1024B0005AA96BA97CA9C6010E940C08B601C301E8
:1024C0000E94FD0BA801FFCE2FEF3FEF4FE75FE427
:1024D000C501B4010E94891918161CF464E471E066
:1024E000A1CF2FEF3FEF4FE75FECC501B4010E9492
:1024F000061787FDF3CF20E030E0A901C501B40144
:102500000E94061787FF09C06DE28FEA94E00E94DF
:10251000A40CB7FAB094B7F8B0942AE037ED43EAC8
:102520005BE3C501B4010E947C184B015C010E9471
:102530005A196B017C010E940B179B01AC01C5016C
:10254000B4010E947B184B015C014AE0C701B6014F
:102550000E94AA0E6EE28FEA94E00E94A40C20E092
:1025600030E040E251E4C501B4010E946C174B0118
:102570005C010E945A196B01F12CE12C4AE0C70161
:10258000B6010E94AA0EC701B6010E940B179B015B
:10259000AC01C501B4010E947B1820E030E040E2AC
:1025A00051E40E946C170E945A1990E080E04AE0C2
:1025B0000E94AA0E3BCF6BE471E081EC93E00E9495
:1025C0009B0E4091AD045091AE046091A9047091AE
:1025D000AA0481EC93E00E949F0168E471E081EC21
:1025E00093E00E949B0E3ACF1F920F920FB60F926C
:1025F00011242F933F938F939F93AF93BF93809119
:10260000B7019091B801A091B901B091BA01309190
:10261000B60123E0230F2D3758F50196A11DB11DFA
:102620002093B6018093B7019093B801A093B901AC
:10263000B093BA018091BB019091BC01A091BD0102
:10264000B091BE010196A11DB11D8093BB01909375
:10265000BC01A093BD01B093BE01BF91AF919F910A
:102660008F913F912F910F900FBE0F901F90189553
:1026700026E8230F0296A11DB11DD2CF1F920F9203
:102680000FB60F9211242F933F934F935F936F9345
:102690007F938F939F93AF93BF93EF93FF9381ECBF
:1026A00093E00E941D02FF91EF91BF91AF919F9126
:1026B0008F917F916F915F914F913F912F910F90EB
:1026C0000FBE0F901F9018951F920F920FB60F928A
:1026D00011242F938F939F93EF93FF93E091D10356
:1026E000F091D2038081E091D703F091D80382FD6D
:1026F0001BC090818091DA038F5F8F732091DB0381
:10270000821741F0E091DA03F0E0EF53FC4F958F30
:102710008093DA03FF91EF919F918F912F910F900A
:102720000FBE0F901F9018958081F4CF1092C403B4
:102730001092C30388EE93E0A0E0B0E08093C5035D
:102740009093C603A093C703B093C8032EE031E073
:102750003093C2032093C10325EC30E03093CE03C5
:102760002093CD0324EC30E03093D0032093CF03AB
:1027700020EC30E03093D2032093D10321EC30E001
:102780003093D4032093D30322EC30E03093D6036C
:102790002093D50326EC30E03093D8032093D70361
:1027A0001092DA031092DB031092DC031092DD0327
:1027B00020E520935E0410925F041092650410924D
:1027C00066041092690410926B0442E050E060E0ED
:1027D00070E040936C0450936D0460936E047093AA
:1027E0006F041092830410928D0410928C0420E2E6
:1027F00031E030938B0420938A0410928F0410925E
:10280000B2041092B1048093B3049093B404A093E3
:10281000B504B093B6048CE291E09093B004809339
:10282000AF041092C9041092C8041092BB04109215
:10283000AA041092A9041092AC041092AB04109256
:10284000AE041092AD046BE070E090E080E00E9476
:102850008D1C009701F19093AA048093A9042AE0AB
:1028600030E03093AC042093AB042091AD04309160
:10287000AE04232B11F4FC0110828AE090E09093C7
:10288000AE048093AD046AE571E08091A904909153
:10289000AA040C946B1D8091A9049091AA0400973E
:1028A00011F00E94041C1092AA041092A904109224
:1028B000AE041092AD041092AC041092AB040895D3
:1028C000789484B5826084BD84B5816084BD85B50B
:1028D000826085BD85B5816085BD80916E00816017
:1028E00080936E00109281008091810082608093BD
:1028F00081008091810081608093810080918000BF
:102900008160809380008091B10084608093B100E9
:102910008091B00081608093B00080917A008460E3
:1029200080937A0080917A00826080937A0080910F
:102930007A00816080937A0080917A008068809329
:102940007A001092C10082E00E94D10083E00E94D0
:10295000D10084E00E94D10085E00E94D10086E091
:102960000E94D10087E00E94D10088E00E94D1003F
:1029700089E00E94D10082E10E94D10083E10E949F
:10298000D10060E084E00E94F00060E085E00E94F9
:10299000F00060E089E00E94F00060E082E10E94C7
:1029A000F00060E086E00E94F00060E083E10E94B9
:1029B000F000E091D103F091D20382E08083E091B6
:1029C000CD03F091CE031082E091CF03F091D003BC
:1029D0008FEC80831092D903E091D503F091D60358
:1029E00086E08083E091D303F091D40380818061FD
:1029F0008083E091D303F091D40380818860808349
:102A0000E091D303F091D403808180688083E091CA
:102A1000D303F091D40380818F7D808365E671E0DC
:102A200081EC93E00E949B0E80918F04882321F01B
:102A30008AE894E00E94440A10926B0410926904A0
:102A400010926604109265048AE0809364040E94E8
:102A50009301EB01809164040E94D10061E08091B8
:102A600064040E94F0001FB7F8948091B5018111B1
:102A700024C0ECE2F1E08491E0E4F1E09491E82FED
:102A8000F0E0EE0FFF1FE85EFE4FA591B491EC91D0
:102A9000E92321F461E08AE00E94F0008AE00E94CC
:102AA000D1008CB580618CBD8CB580648CBD8DE00F
:102AB0000E94D1008BE00E94D1008091B5018F5F10
:102AC0008093B5011FBF82E580935E0410925F047E
:102AD00080915E0490915F040E94E2021AE08FEF01
:102AE0000E94BD021150D9F780E694E00E94E502F1
:102AF00020E030E0A90160E080E694E00E94FB0263
:102B0000182F80936A04813089F00E9493016C1B16
:102B10007D0B613D774060F381E08093650480E642
:102B200094E00E94B20266E971E07AC02AEA31E0DC
:102B300040E050E068E080E694E00E94FB0282FF03
:102B40002AC010936B0480916B04C12CD12CE12C12
:102B500020E4F22E823019F0C12CD12C760120E035
:102B600030E0A90167E380E694E00E94FB02A70140
:102B7000960169E280E694E00E94FB0280936A0479
:102B80008823C1F00E9493016C1B7D0B613D77404F
:102B900030F388E0C2CF14E00E94C40280936A043C
:102BA0001150D1F78A3A11F082E0B7CF82E08093DA
:102BB0006B04C9CF80916B048230D1F420E030E007
:102BC000A9016AE380E694E00E94FB02882311F0E9
:102BD00086E0A3CF0E94C402807C803C19F483E08D
:102BE00080936B040E94C4020E94C4020E94C4022B
:102BF00080E694E00E94B20280E580935E04109229
:102C00005F0481E00E940105882309F4EFC08AE88F
:102C100094E00E94B807882309F485CF6EE771E03D
:102C200081EC93E00E949B0E68E471E081EC93E0FC
:102C30000E949B0E90E0292E90E0392E60E088E003
:102C40000E94F00004E610E0C8ECD0E061E070E023
:102C500082E090E00E94080E68EC70E080E090E076
:102C60000E94610184E6A82EB12CF12CE12C83E4B2
:102C700080937C0080917A00806480937A008091B8
:102C80007A0086FDFCCFC0907800D090790062E099
:102C900070E080E090E00E946101EC0CFD1C81E09E
:102CA000A81AB10821F7C70164E670E00E94181B5A
:102CB000072E000C880B990B0E940D1720E030E0C6
:102CC00040EA50E40E946C1720E030EC4FE754E4F7
:102CD0000E94E81820E030E0A9010E947C186B01F6
:102CE0007C0120E030E040E450E40E948E192B018A
:102CF0003C01A7019601C701B6010E946C1720ECA8
:102D00003BED43EE51E40E946C174B015C012FE355
:102D100033EE4CEA50ECC301B2010E946C179B01E8
:102D2000AC01C501B4010E947C184B015C0123E990
:102D300038ED46E452E4C701B6010E946C179B01CE
:102D4000AC01C501B4010E947B1825E531EC4AEFC6
:102D500051E40E947C180E94D110219709F076CF8F
:102D600064E170E087E090E00E94080E68EE73E096
:102D700080E090E00E94610160E07CE38CE196E4F9
:102D80000E94D1100150110909F05ECF61E088E086
:102D90000E94F0006AE070E080E090E00E94610133
:102DA000C4E6D0E064E170E087E090E00E94080EA5
:102DB0006AE070E080E090E00E946101219791F765
:102DC000C0E1DEE068EE73E080E090E00E94610127
:102DD0002197C1F72114310409F430CF0E94090270
:102DE000882309F42BCF0E94000028CF80E00E94A6
:102DF0000105882309F497CE0ACF8091A904909108
:102E0000AA04009711F00C94041C08950E9448171E
:102E100008F481E00895E89409C097FB3EF490958A
:102E20008095709561957F4F8F4F9F4F9923A9F0A3
:102E3000F92F96E9BB279395F69587957795679532
:102E4000B795F111F8CFFAF4BB0F11F460FF1BC076
:102E50006F5F7F4F8F4F9F4F16C0882311F096E909
:102E600011C0772321F09EE8872F762F05C06623B7
:102E700071F096E8862F70E060E02AF09A95660F70
:102E8000771F881FDAF7880F9695879597F9089529
:102E9000990F0008550FAA0BE0E8FEEF161617066B
:102EA000E807F907C0F012161306E407F50798F0D3
:102EB000621B730B840B950B39F40A2661F0232BEC
:102EC000242B252B21F408950A2609F4A140A69568
:102ED0008FEF811D811D08950E947F170C94F017BC
:102EE0000E94E21738F00E94E91720F0952311F0B4
:102EF0000C94D9170C94DF1711240C9424180E94F9
:102F0000011870F3959FC1F3950F50E0551F629F14
:102F1000F001729FBB27F00DB11D639FAA27F00D32
:102F2000B11DAA1F649F6627B00DA11D661F829F59
:102F30002227B00DA11D621F739FB00DA11D621F3E
:102F4000839FA00D611D221F749F3327A00D611D5B
:102F5000231F849F600D211D822F762F6A2F11243D
:102F60009F5750409AF0F1F088234AF0EE0FFF1F70
:102F7000BB1F661F771F881F91505040A9F79E3FC7
:102F8000510580F00C94D9170C9424185F3FE4F39A
:102F9000983ED4F3869577956795B795F795E7951D
:102FA0009F5FC1F7FE2B880F911D9695879597F926
:102FB000089597F99F6780E870E060E008959FEFBB
:102FC00080EC089500240A941616170618060906C0
:102FD000089500240A94121613061406050608958F
:102FE000092E0394000C11F4882352F0BB0F40F417
:102FF000BF2B11F460FF04C06F5F7F4F8F4F9F4F57
:10300000089557FD9058440F551F59F05F3F71F0D8
:103010004795880F97FB991F61F09F3F79F087953F
:103020000895121613061406551FF2CF4695F1DFC8
:1030300008C0161617061806991FF1CF8695710558
:10304000610508940895E894BB2766277727CB018C
:1030500097F908950E946C18A59F900DB49F900D4C
:10306000A49F800D911D112408952F923F924F929D
:103070005F926F927F928F929F92AF92BF92CF9208
:10308000DF92EF92FF920F931F93CF93DF93CDB711
:10309000DEB7CA1BDB0B0FB6F894DEBF0FBECDBF89
:1030A00009942A88398848885F846E847D848C845A
:1030B0009B84AA84B984C884DF80EE80FD800C8163
:1030C0001B81AA81B981CE0FD11D0FB6F894DEBF46
:1030D0000FBECDBFED010895A29FB001B39FC00107
:1030E000A39F700D811D1124911DB29F700D811D34
:1030F0001124911D08955058BB27AA270E949318A8
:103100000C94F0170E94E21738F00E94E91720F0A3
:1031100039F49F3F19F426F40C94DF170EF4E09570
:10312000E7FB0C94D917E92F0E94011858F3BA173E
:10313000620773078407950720F079F4A6F50C94CD
:1031400023180EF4E0950B2EBA2FA02D0B01B90118
:1031500090010C01CA01A0011124FF27591B99F00D
:10316000593F50F4503E68F11A16F040A22F232F19
:10317000342F4427585FF3CF469537952795A79569
:10318000F0405395C9F77EF41F16BA0B620B730B10
:10319000840BBAF09150A1F0FF0FBB1F661F771F81
:1031A000881FC2F70EC0BA0F621F731F841F48F436
:1031B000879577956795B795F7959E3F08F0B0CFBF
:1031C0009395880F08F09927EE0F979587950895A6
:1031D0000E94FC180C94F0170E94E91758F00E9406
:1031E000E21740F029F45F3F29F00C94D9175111F0
:1031F0000C9424180C94DF170E94011868F399238B
:10320000B1F3552391F3951B550BBB27AA276217E2
:103210007307840738F09F5F5F4F220F331F441FEF
:10322000AA1FA9F335D00E2E3AF0E0E832D0915023
:103230005040E695001CCAF72BD0FE2F29D0660F10
:10324000771F881FBB1F261737074807AB07B0E853
:1032500009F0BB0B802DBF01FF2793585F4F3AF059
:103260009E3F510578F00C94D9170C9424185F3FB9
:10327000E4F3983ED4F3869577956795B795F795DF
:103280009F5FC9F7880F911D9695879597F90895C7
:10329000E1E0660F771F881FBB1F62177307840763
:1032A000BA0720F0621B730B840BBA0BEE1F88F772
:1032B000E09508950E94091888F09F5798F0B92F5B
:1032C0009927B751B0F0E1F0660F771F881F991F5B
:1032D0001AF0BA95C9F714C0B13091F00E942318C2
:1032E000B1E008950C942318672F782F8827B85FD2
:1032F00039F0B93FCCF3869577956795B395D9F7B3
:103300003EF490958095709561957F4F8F4F9F4FBC
:1033100008950E94481708F48FEF0895FA01EE0F00
:10332000FF1F309621053105A1F16115710561F48A
:103330008038BFE39B0749F168949038810561F0BC
:103340008038BFEF9B0741F099234AF5FF3FE10525
:103350003105210519F1E8940894E795D901AA23CC
:1033600029F4AB2FBE2FF85FD0F310C0FF5F70F4CD
:10337000A695E0F7F73950F019F0FF3A38F49F7747
:103380009F930DD00F9007FC9058089546F00C9431
:10339000DF1760E070E080E89FE308954FE79F77D4
:1033A0005F934F933F932F930E948E1A2F913F91DB
:1033B0004F915F910E946C170C94EB190E94481773
:1033C000880B990B089529F416F00C94D9170C94D6
:1033D00023180C94DF170E940918A8F39638A0F759
:1033E00007F80F92E8942BE33AEA48EB5FE70E9474
:1033F00082170F920F920F924DB75EB70F920E94F5
:10340000D61AE8E6F0E00E941D1A4F915F91EF9105
:10341000FF91E595EE1FFF1F49F0FE57E068442736
:10342000EE0F441FFA95E1F74195550B0E94501A93
:103430000F9007FE0C94441A0895DF93CF931F93C7
:103440000F93FF92EF92DF927B018C01689406C08C
:10345000DA2EEF010E947F17FE01E894A5912591D5
:10346000359145915591A6F3EF010E949318FE0105
:103470009701A801DA9469F7DF90EF90FF900F9120
:103480001F91CF91DF9108959B01AC0160E070E046
:1034900080E89FE30C94E8180C94D9170C940A1B4D
:1034A0000E940918D8F39923C9F3940F511DA3F36F
:1034B0009150504094F059F0882332F0660F771FF6
:1034C000881F91505040C1F79E3F51052CF7880F3F
:1034D000911D9695879597F908955F3FACF0983EBA
:1034E0009CF0BB27869577956795B79508F4B160F2
:1034F0009395C1F7BB0F58F711F460FFE8CF6F5FEA
:103500007F4F8F4F9F4FE3CF0C94241816F00C94ED
:103510000A1B0C94DF1768940C94D9170E940918A1
:10352000A8F39923C1F3AEF3DF93CF931F930F93C7
:10353000FF92C92FDD2788232AF02197660F771F76
:10354000881FDAF720E030E040E85FEB9FE388393E
:1035500020F0803E38F021968F770E947C18E0E9B9
:10356000F0E004C00E947C18EDEBF0E00E941D1A10
:103570008B01BE01EC01FB2E6F5771097595771F0A
:10358000880B990B0E940D1728E132E741E35FE3B6
:103590000E947F17AF2D9801AE01FF900F911F91F0
:1035A000CF91DF910E9493180C94F017FA01DC017F
:1035B000AA0FBB1F9B01AC01BF5728F4222733275A
:1035C0004427507820C0B75190F4AB2F0024469583
:1035D00037952795011CA395D2F3002071F0220F97
:1035E000331F441FB395DAF30ED00C947B1861306F
:1035F0007105A0E88A07B94630F49B01AC01662743
:10360000772788279078309621F020833183428372
:10361000538308959F3F31F0915020F4879577951B
:103620006795B795880F911D9695879597F9089599
:1036300097FB072E16F4009407D077FD09D00E945F
:103640004E1B07FC05D03EF4909581959F4F089541
:10365000709561957F4F0895A1E21A2EAA1BBB1B9E
:10366000FD010DC0AA1FBB1FEE1FFF1FA217B3074E
:10367000E407F50720F0A21BB30BE40BF50B661F64
:10368000771F881F991F1A9469F760957095809528
:1036900090959B01AC01BD01CF010895AA1BBB1BF6
:1036A00051E107C0AA1FBB1FA617B70710F0A61B42
:1036B000B70B881F991F5A95A9F780959095BC0163
:1036C000CD010895EE0FFF1F0590F491E02D0994B0
:1036D0000F931F93CF93DF938230910510F482E014
:1036E00090E0E091CC04F091CD0430E020E0B0E037
:1036F000A0E0309799F42115310509F44AC0281B40
:10370000390B24303105D8F58A819B81611571050B
:1037100089F1FB0193838283FE0111C040815181B5
:103720000281138148175907E0F04817590799F4A7
:10373000109761F012960C93129713961C93329681
:10374000CF01DF91CF911F910F9108950093CC0489
:103750001093CD04F4CF2115310551F042175307D2
:1037600038F0A901DB019A01BD01DF01F801C1CFE9
:10377000EF01F9CF9093CD048093CC04CDCFFE011F
:10378000E20FF31F819391932250310939832883EB
:10379000D7CF2091CA043091CB04232B41F4209140
:1037A0000601309107013093CB042093CA04209185
:1037B0000401309105012115310541F42DB73EB7C3
:1037C0004091080150910901241B350BE091CA0476
:1037D000F091CB04E217F307A0F42E1B3F0B281740
:1037E000390778F0AC014E5F5F4F2417350748F07A
:1037F0004E0F5F1F5093CB044093CA048193919363
:103800009FCFF0E0E0E09CCFCF93DF930097E9F00B
:10381000FC01329713821282A091CC04B091CD04A6
:10382000ED0130E020E01097A1F420813181820F7A
:10383000931F2091CA043091CB042817390709F04F
:1038400061C0F093CB04E093CA04DF91CF91089557
:10385000EA01CE17DF07E8F54A815B819E01411539
:103860005105B1F7E901FB83EA8349915991C40FEE
:10387000D51FEC17FD0761F4808191810296840FBA
:10388000951FE90199838883828193819B838A8331
:10389000F0E0E0E012968D919C9113970097B9F5B6
:1038A0002D913C911197CD010296820F931F20918B
:1038B000CA043091CB042817390739F6309751F5EF
:1038C0001092CD041092CC04B093CB04A093CA0400
:1038D000BCCFD383C28340815181840F951FC81709
:1038E000D90761F44E5F5F4F88819981480F591F56
:1038F000518340838A819B81938382832115310583
:1039000009F0B0CFF093CD04E093CC049ECFFD013D
:10391000DC01C0CF13821282D7CFB0E0A0E0E3E990
:10392000FCE10C9437188C01009751F4CB010E94F4
:10393000681B8C01C801CDB7DEB7E0E10C945318C9
:10394000FC01E60FF71F9C0122503109E217F30733
:1039500008F49DC0D901CD91DC911197C617D70706
:1039600098F0C530D10530F3CE010497861797073C
:1039700008F3C61BD70B2297C193D1936D937C9309
:10398000CF010E94041CD6CF5B01AC1ABD0A4C01CA
:103990008C0E9D1EA091CC04B091CD04512C412CD5
:1039A000F12CE12C109731F58091CA049091CB0451
:1039B0008815990509F05CC04616570608F058C0EE
:1039C0008091040190910501009741F48DB79EB755
:1039D0004091080150910901841B950BE817F907E4
:1039E00008F055C0F093CB04E093CA04F901718349
:1039F0006083A0CF8D919C91119712966C90129735
:103A000013967C901397A815B90559F56C0142E0FF
:103A1000C40ED11CCA14DB0420F1AC014A195B09A5
:103A2000DA011296159780F0628273825183408387
:103A3000D9016D937C93E114F10471F0D7011396D1
:103A4000FC93EE93129776CF22968C0F9D1FF9016F
:103A500091838083F301EFCFF093CD04E093CC0406
:103A600069CF4816590608F42C017D01D3019ACF7D
:103A7000CB010E94681B7C01009749F0AE01B801A0
:103A80000E94571DC8010E94041C870153CF10E0FB
:103A900000E050CFFB01DC0104C08D910190801942
:103AA00021F441505040C8F7881B990B0895FB0141
:103AB000DC0102C001900D9241505040D8F70895AA
:103AC000FC018191861721F08823D9F79927089561
:103AD0003197CF010895FB01DC0101900D92002088
:103AE000E1F70895FB01DC014150504048F001909E
:103AF0000D920020C9F701C01D9241505040E0F7DF
:103B0000089510E0C6EAD0E004C0FE010E94621BE6
:0C3B10002196C73AD107C9F7F894FFCFFF
:103B1C00FFFFFFFF0000CE048000000000003F020A
:103B2C009F01CC018C02FD01DB01EF0100000000C4
:103B3C00EC0B9F01E6094D0C00000000A40C870C57
:103B4C00770C4E0C570CDA0DE40D2F006E616E00E5
:103B5C00696E66006F7666000D0A006572726F7290
:103B6C00206F70656E696E67200073636E30303045
:103B7C002E74787400496E697469616C697A696E27
:103B8C006720534420636172642E2E2E2000696ED0
:103B9C00697469616C697A6174696F6E207375639D
:103BAC00636573732100696E697469616C697A610C
:0E3BBC0074696F6E206661696C65642100009B
:00000001FF
